:020000040800F2
:10000000D0080020010100088718000887130008A5
:10001000851800088D010008551E0008000000002A
:100020000000000000000000000000004919000866
:10003000B901000800000000891800087D1C0008B4
:100040001B0100081B0100081B0100081B01000820
:100050001B0100081B0100081B0100081B01000810
:100060001B0100081B0100081B0100081B01000800
:100070001B0100081B0100081B0100081B010008F0
:100080001B0100081B0100081B0100081B010008E0
:100090001B0100081B0100081B0100081B010008D0
:1000A0001B0100081B0100081B0100081B010008C0
:1000B0001B0100081B0100081B0100081B010008B0
:1000C0001B0100081B0100081B0100081B010008A0
:1000D0001B0100081B0100081B0100081B01000890
:1000E0001B0100081B0100081B010008DFF80CD0F1
:1000F00000F03AF800480047E3220008D00800204A
:100100000648804706480047FEE7FEE7FEE7FEE7B1
:10011000FEE7FEE7FEE7FEE7FEE7FEE7D11C00088C
:10012000ED000008202A04DB203A21FA02F0002129
:10013000704721FA02F3D040C2F1200291400843F7
:1001400019467047D2B201E000F8012B491EFBD2DC
:1001500070470022F6E710B513460A4604461946D2
:10016000FFF7F0FF204610BD064C074D06E0E068A3
:1001700040F0010394E8070098471034AC42F6D3EE
:10018000FFF7B8FFE824000808250008FEE7000094
:1001900030B504460020651804E000BF14F8011BC8
:1001A00001F048FEAC42F9D3002101F043FEBDE866
:1001B0003040002101F03EBE7047704730B585B039
:1001C00000250446049500F085FB0A480121001B28
:1001D000800A03900095CDE9011404A9684600F057
:1001E00027FA044600F018FB14B1012005B030BD19
:1001F0000020FBE70000010800B587B000F06AFBB3
:10020000684600F093FA00F007FB0299FC2088434F
:1002100000D0022007B000BD10B500F05BFB034921
:100220003420C860BDE8104000F0F6BA002002405B
:100230002DE9F041164688460546002400F04AFBA9
:100240000E4F13E058F8242000232946022000F026
:1002500001FB10B10320BDE8F08158F824002968A3
:10026000814201D00220F6E7641C2D1DB44201D268
:10027000BD42E7D900F0D0FA0020ECE7FCFF00080F
:1002800010B58EB0044607A800F050FAACB10020BB
:10029000019001200090A5208DF810009DF82D0000
:1002A0008DF81100099840F0FC0400F013FB00F0F9
:1002B000BFFA00F011FA10B107E00120E8E7684644
:1002C000029400F045FA002800D004200EB010BDC2
:1002D00006490020C8610648016941F00401016136
:1002E000016941F04001016170470000B004002045
:1002F000002002402DE9F047DFF89C80D8F820105C
:100300004CF250390143CFB2C1F30726C1F3074580
:100310000C0E484600F02AF900283BD11F49C8615D
:1003200000F0DAF9002835D1D8F8102042F0100298
:10033000C8F81020FF2F07D01948018839430180E1
:10034000484600F013F9F8B9FF2E08D01448801C75
:10035000018831430180484600F008F9A0B9FF2D1B
:1003600008D00F48001D018829430180484600F04D
:10037000FDF848B9FF2C07D00948801D01882143AA
:100380000180484600F0F2F8D8F8102022F0100260
:10039000C8F81020BDE8F08700200240B00400201B
:1003A00008F8FF1F2DE9F047DFF89C80D8F82010EF
:1003B0004CF250398143CFB2C1F30726C1F3074550
:1003C0000C0E484600F0D2F800283BD11F49C86106
:1003D00000F082F9002835D1D8F8102042F0100240
:1003E000C8F81020FF2F07D0194801883940018034
:1003F000484600F0BBF8F8B9FF2E08D01448801C1E
:10040000018831400180484600F0B0F8A0B9FF2DC6
:1004100008D00F48001D018829400180484600F09F
:10042000A5F848B9FF2C07D00948801D0188214054
:100430000180484600F09AF8D8F8102022F0100207
:10044000C8F81020BDE8F08700200240B00400206A
:1004500008F8FF1F0449A520C96901F0020102291B
:1004600000D10020704700000020024070B5064611
:100470004CF25035284600F079F8002820D1114977
:10048000C861114C206940F020002061206940F0D3
:1004900040002061284600F069F8216921F0200120
:1004A000216100280CD1206940F01000206107482C
:1004B0000680284600F05AF8216921F010012161D8
:1004C00070BD0000B00400200020024000F8FF1FB3
:1004D000064A0021D16106490A6942F002020A6116
:1004E0004861086940F0400008617047B00400208E
:1004F00000200240044B0022DA61044A136943F0F1
:100500000103136101807047B00400200020024005
:1005100014480022C168CB06134904D5CA6942F0C9
:100520000202CA611022C3685B0705D5CB6943F09C
:100530000103CB6142F00402C369DB0707D0CB693A
:1005400043F00403CB61C16921F00101C161A2F54F
:100550008071013901D0C2607047C16921F0010189
:10056000C161704700200240B004002070B505460C
:1005700000F0B4FA0646114C09E0681C07D025B11A
:1005800000F0ACFA801BA84201D9032070BDE068DE
:10059000C007F2D1E068800601D52020E060E06865
:1005A000C00605D4E069C00702D1E068400703D562
:1005B000FFF7AEFF012070BD002070BD002002409B
:1005C00010B5040002D0607910B106E0012010BD22
:1005D00000202071204600F005F801206071002005
:1005E00010BD000008B500680649884208D10648D9
:1005F000416941F040014161406900F040000090D4
:1006000008BD0000003002400010024070B50446F2
:1006100000F064FA0546601C02D0044800780444E7
:1006200000F05CFA401BA042FAD370BD1400002019
:100630002DE9F047054626480F460126017E01298F
:100640000FD00121814601762868DFF888804CF2BE
:100650005034022808D0A2462046FFF787FFA8B1F1
:1006600031E00220BDE8F0872046FFF77FFF08BB9E
:100670000120FFF72DFE2046FFF778FFD8F8101075
:10068000064621F00401C8F810101CE04FF0FF30BE
:100690003860AC6811E02046FFF71AFF5046FFF7BC
:1006A00065FFD8F81010060021F00201C8F81010FC
:1006B00001D03C6007E004F58064D5E9020100EB5D
:1006C0008120A042E7D8002189F818103046C9E7F8
:1006D000B00400200020024070B5FFF7BBFEC5B299
:1006E0004CF250363046FFF741FF002818D10D4933
:1006F000C8610D4C206940F020002061206940F065
:10070000400020613046FFF731FF216921F02001D0
:100710002161002804D12846BDE87040FFF7A6BE3D
:1007200070BD0000B00400200020024070B50446F7
:10073000064D07202060286AA060FFF78BFE20741A
:10074000E869C0F38200607470BD000000200240C0
:100750002DE9F0472D4D04460120297E01290ED0B8
:100760000121297621784FF00007C9070DD0606874
:100770000128A06806D0FFF7BDFDE8BB05E0022018
:10078000BDE8F087FFF70EFEF7E72178890703D56C
:10079000207CFFF76BFE78BB21781D4E49074CF299
:1007A000503916D594F811804846FFF7DFFE78B926
:1007B000EF61306940F010003061164948F0880060
:1007C00008804846FFF7D2FE316921F010013161FF
:1007D00090B92178090716D5D4F81480247E4846AC
:1007E000FFF7C4FE40B9EF61306940F0100030619E
:1007F000A8F80040484600E005E0FFF7B7FE316981
:1008000021F0100131612F76BAE70000B00400201A
:100810000020024002F8FF1F0348016941F08001F7
:1008200001610020704700000020024000F0E6B99E
:1008300005480169890505D404498160044981603E
:1008400000207047012070470020024023016745C7
:10085000AB89EFCD2DE9F05F07461C4888460024A0
:10086000017E15461E46012909D0012181460176E7
:100870004CF2503A5046FFF779FE18B122E00220C0
:10088000BDE8F09F012F02D0022F00D00427D346ED
:10089000DFF83CA0220128463146FFF743FC81B235
:1008A00008EB4400FFF726FE5846FFF75FFEDAF834
:1008B000102022F00102CAF8102018B9641CE4B21A
:1008C000BC42E7D3002289F81820D9E7B004002001
:1008D00000200240064900200A69120607D5054A91
:1008E0004A60054A4A600969090600D50120704737
:1008F0000020024023016745AB89EFCD2DE9F84F79
:10090000DFF8B891002409F1040A0AF1040B234628
:100910000F270BF1040EC9E00125A5402A40AA4289
:100920007DD1674ED1F804C0ACEB0608B44532D097
:1009300014DCBCF1030F3AD009DCBCF1000F2AD063
:10094000BCF1010F1CD0BCF1020F31D11DE0BCF194
:10095000110F17D0BCF1120F2AD119E0B8F5881F7A
:1009600019D006DCB8F5803F15D0B8F5801F1FD12F
:1009700011E0B8F5001F0ED0B8F5041F18D10AE039
:10098000CB6815E0CB681B1D12E0CB6808330FE085
:10099000CB680C330CE08B682BB1012B4FF00803B4
:1009A00003D0456104E0042302E0056100E0002378
:1009B000FF2A01D8064601E000F104064FEA84054B
:1009C00001D9A5F12005D6F8008007FA05FC28EA30
:1009D0000C0803FA05F548EA0508C6F800804D68DA
:1009E000ED0062D5374DAE6946F00106AE61AD69E6
:1009F00024F0030605F001050095334D06EB050CC8
:100A0000DCF80850A607360F07FA06F825EA0805AD
:100A1000DFF8B880404503D14FF0000817E044E00C
:100A2000DFF8AC80404502D14FF001080FE0DFF85D
:100A3000A480404502D14FF0020808E0DFF898801A
:100A4000404502D14FF0030801E04FF0040808FAD6
:100A500006F848EA0508CCF808804D68D9F8006027
:100A6000ED034D4601D5164300E096432E604D68D8
:100A7000DAF80060AD03554601D5164300E0964311
:100A80002E604D68DBF80060ED025D4601D516432F
:100A900000E096432E604D68DEF80060AD027546BA
:100AA00001D5164300E096432E60641C0D682A466B
:100AB000E5407FF431AFBDE8F88F0000000401404D
:100AC0000000111000100240000001400008014029
:100AD000000C0140001001400014014001488068F2
:100AE0007047000014000020024881680278114419
:100AF0008160704714000020074810B5016841F07C
:100B000010010160032000F067F8002000F006F8F3
:100B100000F024F8002010BD0020024070B50D4DFB
:100B200004464FF47A712878B1FBF0F00A4909685D
:100B3000B1FBF0F000F0F0FA48B9102C07D2002217
:100B40002146501E00F028F800206C6070BD012086
:100B500070BD000014000020200000200C4808B5E3
:100B6000816941F001018161816901F00101009118
:100B7000C16941F08051C161C06900F080500090AE
:100B80000448416821F0E06141F00071416008BD16
:100B90000010024000000140F0B40E4B1B680C46F0
:100BA000C3F30223C3F10705042D00D90425191D41
:100BB000072901D2002300E0DB1E012606FA05F119
:100BC000491E214099409E40761E16403143F0BC9C
:100BD00001F068BB0CED00E0064900F00702086870
:100BE0004FF6FF03184040EA0220034A1043086012
:100BF000704700000CED00E00000FA05BFF34F8FD6
:100C000005480168054A01F4E06111430160BFF342
:100C10004F8F00BFFDE700000CED00E00400FA0577
:100C20002DE9F0470F46050061D0434E306800F0D3
:100C30000700B84209D2306820F00700384330601E
:100C4000306800F00700B84251D128683B4C81075A
:100C500012D5400703D5606840F4E06060602878F2
:100C6000000703D5606840F4605060606068A96860
:100C700020F0F000084360602878C00728D068683A
:100C8000012810D02168022810D0890700292EDA07
:100C9000616821F0030101436160FFF71FFF804697
:100CA00041F288390DE021688903EFE78901EDE71A
:100CB000FFF714FFA0EB0801494502D90320BDE866
:100CC000F0876068696800F00C00B0EB810FEFD12D
:100CD000306800F00700B8420BD9306820F00700F8
:100CE00038433060306800F00700B84201D001207E
:100CF000E5E72878400705D56068E96820F4E060FA
:100D0000084360602878000706D56068296920F4E8
:100D1000605040EAC100606000F038F86168084A3D
:100D2000C1F30311515CC8400649086006480068D9
:100D3000FFF7F4FE0020C2E700200240001002404E
:100D40000023000820000020180000200448054966
:100D500000684968044AC1F30221515CC8407047E9
:100D6000200000200010024010230008044805491C
:100D700000684968044AC1F3C221515CC840704709
:100D800020000020001002401023000812A185B0AE
:100D90000FC98DE80F0014A0144A00680490516830
:100DA000134801F00C03042B10D0082B0ED1C1F313
:100DB0008343C9031DF803000AD5516804AAC1F38F
:100DC0004041515C0A4A5043B0FBF1F005B0704716
:100DD00008494843FAE7000002030405060708092A
:100DE0000A0B0C0D0E0F1010010200000010024043
:100DF00000127A0000093D002DE9F84F040070D080
:100E00002078C04DC00749D06868C0F38100012830
:100E100007D06868C0F38100022809D16868C00360
:100E200006D52868800339D560680028E7D035E00A
:100E30006068B0F5803F0BD010B1B0F5A02F11D095
:100E4000286820F480302860286820F4802002E0A0
:100E5000286840F480302860606890B1FFF73EFE5B
:100E600006460AE0286840F480202860F0E700BFCA
:100E7000FFF734FE801B642873D828688003F7D5F9
:100E80000CE0FFF72BFE064605E000BFFFF726FE4D
:100E9000801B6428F0D828688003F7D420789A4E05
:100EA00080074FF001094FF0000839D5686810F04D
:100EB0000C0F07D06868C0F38100022809D1686868
:100EC000C00306D42868800714D52069012808D1FA
:100ED00010E02069B0B1C6F80090FFF7FFFD0746AB
:100EE00005E00AE1FFF7FAFDC01B0228C4D8286814
:100EF0008007F7D52868616920F0F80040EAC10052
:100F000028600DE0C6F80080FFF7E8FD074604E022
:100F1000FFF7E4FDC01B022823D828688007F7D418
:100F2000207800072CD57948A169D9B1C0F8009084
:100F3000FFF7D4FD074604E0FFF7D0FDC01B0228F1
:100F40000FD8686A8007F7D571484FF4FA510068E6
:100F5000B0FBF1F0009000BF0098411E0091FAD262
:100F60000EE080E0C0F80080FFF7B8FD074604E01F
:100F7000FFF7B4FDC01B022875D8686A8007F7D454
:100F80002078400760D5E8690027C00008D4E869E8
:100F900040F08050E861E869012700F0805000903F
:100FA0005C480168C90513D40168834641F4807127
:100FB0000160FFF793FD824606E000BFFFF78EFD5C
:100FC000A0EB0A0064284ED8DBF80000C005F5D578
:100FD000E06801280AD008B1052813D0286A20F05B
:100FE00001002862286A20F0040002E0286A40F02C
:100FF00001002862E06841F2883B98B1FFF76EFD7E
:1010000082460BE0286A40F004002862EEE700BF49
:10101000FFF764FDA0EB0A0159455AD8286A8007FA
:10102000F6D50CE0FFF75AFD824605E0FFF756FDC6
:10103000A0EB0A0159454CD8286A8007F6D41FB1A5
:10104000E86920F08050E861E06988B36968C1F31D
:101050008101022944D00228C6F8608004D0FFF73D
:101060003DFD044638E034E0FFF738FD074604E074
:10107000FFF734FDC01B02282BD828688001F7D465
:10108000206AB0F5803F05D16868A16820F400307F
:1010900008436860D4E908010843696821F47411C1
:1010A00008436860C6F86090FFF718FD044606E044
:1010B00025E000BFFFF712FD001B022809D82868B1
:1010C0008001F7D51BE000BFFFF708FD001B0228D9
:1010D00002D90320BDE8F88F28688001F4D40EE01F
:1010E0000128F7D06868226A00F48031914204D167
:1010F000616A00F47010884201D00120EAE7002004
:10110000E8E7000000100240000042428004424232
:10111000200000200070004010B5401EB0F1807F1C
:1011200001D3012010BD4FF0E02460610F21601752
:1011300001F0B8F80020A06107202061002010BD58
:1011400070B5040004D094F83900002510B106E011
:10115000012070BD84F83850204600F023F8242088
:1011600084F839002068C16821F40051C16020462C
:1011700000F0D2FD2068016921F4904101612068EE
:10118000416921F02A0141612068C16841F40051A0
:10119000C160E563202084F8390084F83A0000201B
:1011A00070BD000030B585B0002400940194029415
:1011B000039400681449884224D11448816941F499
:1011C00080418161816901F480410491816941F02C
:1011D0000401816180690E4D00F0040004904FF419
:1011E0000070009002200190032003906946284679
:1011F000FFF784FB2815CDE90004694628460294D0
:10120000FFF77CFB05B030BD003801400010024004
:10121000000801402DE9F843044690F83A00994649
:1012200016460D4620284FD195B18EB194F838005E
:10123000012849D0012084F838000027E7632220E4
:1012400084F83A00FFF74AFCA6858046E68531E03F
:101250000120BDE8F883E08D401EE085A06843468C
:10126000B0F5805F4FF000024FF020012046CDF82E
:10127000009004D000F0ACFD98B10320E9E700F045
:10128000A7FD0028F9D1206900282068406803D014
:10129000C1B225F8011B0DE0C0F3080125F8021BBF
:1012A00008E0206900282068406801D000F07F0035
:1012B00005F8010BE08D0028CDD1202084F83A00FC
:1012C00084F838700020C4E70220C2E72DE9F84313
:1012D000044690F839001F4616460D46202850D186
:1012E000A5B19EB194F8380001284AD0012084F8B5
:1012F00038004FF00008C4F83C80212084F8390001
:10130000FFF7ECFBA6848146E68426E00120BDE8D9
:10131000F883E08C401EE084A0684B46B0F5805F07
:101320004FF000024FF080012046009703D000F0FC
:101330004FFDE8B90DE000F04BFDC8B928882168E1
:10134000C0F308004860206908B16D1C05E0AD1CC1
:1013500003E0216815F8010B4860E08C0028D8D123
:101360004B46002240212046009700F031FD08B195
:101370000320CCE7202084F8390084F8388000204E
:10138000C5E70220C3E7FEE7F0B500220D4B154686
:1013900014460A27B1FBF3F630368654B1FBF3F658
:1013A00003FB1611B3FBF7F3521C861816F8016CF9
:1013B000302E00D125B16D1C641C0A2CEAD3F0BD7F
:1013C0000022F9E700CA9A3B074910B505480860B2
:1013D0000846FFF7F5F8002803D0BDE81040FEF7F7
:1013E000ECBE10BD0030024000000020094808B5E6
:1013F000816941F020018161816901F02001009142
:10140000816941F004018161806900F0040000906D
:1014100008BD0000001002400C4810B50A490160E8
:101420004FF4E1314160002181600C22C160C0E9CC
:1014300004128161C161FFF783FE002803D0BDE87B
:101440001040FEF7BABE10BD003801402400002055
:101450001CB500208DF80000474800F0A5FB474868
:1014600000F0A2FB464800F09FFB464800F09CFBC2
:10147000434800F099FB444800F096FB3E4800F0DA
:1014800093FB42A000F090FBFEF7B6FE414D424FA9
:101490004FF47A76286041A000F086FB4FA000F060
:1014A00083FB5EA000F080FB6CA000F07DFB286851
:1014B00008B17AA000E089A000F076FB97A000F0C8
:1014C00073FB386840680A24334601226946324873
:1014D000FFF7A0FEB0B1641EE4B204F130008DF855
:1014E00004006423012201A92B48FFF7EFFE6423C7
:1014F00002229AA12848FFF7E9FE002CE4D133200C
:101500008DF800009DF80000312807D0322808D05F
:10151000332809D0342813D091A018E000F016FA2F
:10152000B9E700F0C9FAB6E79DA000F03DFBA54978
:101530004868A8606860096881F308888047AAE75E
:10154000286848B10120FEF79BFE18B19EA000F06C
:101550002BFBA0E7A8A006E00020FEF791FE08B153
:10156000ADA0F4E7B7A000F01FFBBEA000F01CFB8D
:10157000FFF75CF98FE700009C24000804240008B2
:101580006C23000850240008B82300080D0A0D0A37
:101590000000000008000020240000200D0A3D3D4E
:1015A0003D3D3D3D3D3D3D3D3D3D3D3D3D3D3D3D6B
:1015B0003D204D61696E204D656E75203D3D3D3D80
:1015C0003D3D3D3D3D3D3D3D3D3D3D3D3D3D3D3D4B
:1015D0003D3D3D3D3D3D3D3D0D0A0A002020446F0F
:1015E000776E6C6F616420696D61676520746F2030
:1015F00074686520696E7465726E616C20466C61FA
:101600007368202D2D2D2D2D2D2D2D2D2D2D2D2D96
:101610002D2D2D2D20310D0A0A000000202055709F
:101620006C6F616420696D6167652066726F6D2003
:1016300074686520696E7465726E616C20466C61B9
:101640007368202D2D2D2D2D2D2D2D2D2D2D2D2D56
:101650002D2D2D2D20320D0A0A0000002020457866
:10166000656375746520746865206C6F616465647A
:10167000206170706C69636174696F6E202D2D2D0F
:101680002D2D2D2D2D2D2D2D2D2D2D2D2D2D2D2D8A
:101690002D2D2D2D20330D0A0A0000002020446935
:1016A0007361626C65207468652077726974652067
:1016B00070726F74656374696F6E202D2D2D2D2DE2
:1016C0002D2D2D2D2D2D2D2D2D2D2D2D2D2D2D2D4A
:1016D0002D2D2D2D20340D0A0A0000002020456EEE
:1016E00061626C652074686520777269746520702A
:1016F000726F74656374696F6E202D2D2D2D2D2DE5
:101700002D2D2D2D2D2D2D2D2D2D2D2D2D2D2D2D09
:101710002D2D2D2D20340D0A0A0000003D3D3D3DAC
:101720003D3D3D3D3D3D3D3D3D3D3D3D3D3D3D3DE9
:101730003D3D3D3D3D3D3D3D3D3D3D3D3D3D3D3DD9
:101740003D3D3D3D3D3D3D3D3D3D3D3D3D3D3D3DC9
:101750003D3D3D3D3D3D0D0A0A0000000D0A0000E3
:10176000496E76616C6964204E756D6265722021E8
:10177000203D3D3E20546865206E756D6265722087
:1017800073686F756C642062652065697468657242
:1017900020312C20322C2033206F7220340D000099
:1017A00053746172742070726F6772616D20657816
:1017B00065637574696F6E2E2E2E2E2E2E0D0A0AFD
:1017C00000000000004000084572726F723A204627
:1017D0006C61736820777269746520756E2D707204
:1017E0006F74656374696F6E206661696C65642EE1
:1017F0002E2E0D0A00000000577269746520507289
:101800006F74656374696F6E2064697361626C657F
:10181000642E2E2E0D0A00004572726F723A204619
:101820006C6173682077726974652070726F74657B
:101830006374696F6E206661696C65642E2E2E0D6F
:101840000A00000057726974652050726F746563F6
:1018500074696F6E20656E61626C65642E2E2E0D4C
:101860000A00000053797374656D2077696C6C20F1
:101870006E6F7720726573746172742E2E2E0D0A4E
:1018800000000000FEE77047704700002DE9F843B4
:1018900000240F460646904613460C600122694616
:1018A0002848FFF7B7FC050020D19DF80000182854
:1018B00020D006DC01280BD002280BD0042804D14C
:1018C00004E0412827D0612825D0012530700DE0A3
:1018D000802401E04FF480643070221D4346B11C27
:1018E0001848FFF797FC050017D0002428463C60F5
:1018F000BDE8F8834346012269461248FFF78AFC97
:1019000018B99DF80000182803D001259DF80000A3
:10191000DCE70224DAE70225D8E7F178B07881F035
:10192000FF0188420AD130190179407900EB012882
:101930002146301DFEF72CFC4045D7D00024012560
:10194000D4E7000024000020704700001FB50020ED
:10195000009001900290039015A000F025F903A8D3
:1019600000F07AFA38B105281AD004281CD00228D1
:101970001CD01EA015E0254800F016F9244800F000
:1019800013F968460399FFF7FFFC22A000F00CF959
:10199000684600F009F922A000F006F923A000E053
:1019A00028A000F001F91FBD36A0FAE73CA0F8E737
:1019B00057616974696E6720666F7220746865206C
:1019C00066696C6520746F2062652073656E742093
:1019D0002E2E2E20287072657373202761272074A5
:1019E0006F2061626F7274290A0D00000A0D466152
:1019F000696C656420746F20726563656976652023
:101A00007468652066696C65210A0D00182300085A
:101A1000640000200A0D2053697A653A2000000016
:101A20002042797465730D0A000000002D2D2D2DC4
:101A30002D2D2D2D2D2D2D2D2D2D2D2D2D2D2D0AF9
:101A4000000000000A0A0D54686520696D61676531
:101A50002073697A652069732068696768657220F8
:101A60007468616E2074686520616C6C6F77656462
:101A7000207370616365206D656D6F7279210A0D49
:101A8000000000000A0A0D56657269666963617498
:101A9000696F6E206661696C6564210A0D00000043
:101AA0000D0A0A41626F7274656420627920757351
:101AB00065722E0A0D00000008B500208DF80000A8
:101AC0000EA000F071F84FF0FF3301226946124872
:101AD000FFF7A0FB9DF8000043280DD14FF4C04252
:101AE0000EA1144800F07AFA8DF8000008B112A097
:101AF00000E01CA000F058F808BD00000A0A0D53D1
:101B0000656C656374205265636569766520466916
:101B10006C650A0D000000002400002055706C6FF9
:101B200061646564466C617368496D6167652E62C6
:101B3000696E0000004000080A0D4572726F722045
:101B40004F63637572726564207768696C652054B1
:101B500072616E736D697474696E672046696C6535
:101B60000A0D00000A0D46696C652075706C6F6186
:101B7000646564207375636365737366756C6C79F3
:101B8000200A0D0001B5074890F83910A02902D1AC
:101B9000202180F839106423012269460148FFF7AB
:101BA00095FB08BD24000020002201E0521C92B2E7
:101BB000815C0029FAD1014664230148FFF786BB06
:101BC00024000020F0B5054600242A78204623464C
:101BD000302A2ED16A78782A01D0582A29D10224B5
:101BE0001CE000BFA2F14106052E07D9A2F1610752
:101BF000052F03D91136092E04D913E0A2F13007BD
:101C0000092F01D8303A04E0052E01D8373A00E018
:101C1000573A641C02EB03130B2C04D22A5D002AF2
:101C2000E0D103E000202A5D002A01D101200B60F1
:101C3000F0BD2A5D62B16B2A01D04B2A02D10CB1F2
:101C40009B0205E06D2A01D04D2A04D11CB11B0571
:101C500001200B600AE0A2F13006092E0CD803EB3C
:101C600083036FF02F0606EB43031344641C0B2C15
:101C7000DED20128DDD1F0BD0020F0BDFEF734BF7B
:101C800030B58FB028216846FEF763FA14210AA800
:101C9000FEF75FFA01210804CDE900100024029448
:101CA00002250491CDE907504FF4E01009906846F1
:101CB000FFF7A2F80F20CDE90A056802CDE90C4034
:101CC00002210AA80E94FEF7ABFF0FB030BD000052
:101CD0000D48016841F00101016041680B4A114063
:101CE000416001680A4A11400160016821F48021C5
:101CF0000160416821F4FE0141604FF41F018160E1
:101D00000449C00308607047001002400000FFF85B
:101D1000FFFFF6FE08ED00E02DE9F0410446006803
:101D20000169E26821F44051114301612169A06811
:101D30000843616908432168CA6841F20C639A4309
:101D40000243CA6020684169A26921F440711143CD
:101D500041611E49206864253226884202D1FFF77E
:101D600005F801E0FEF7F2FF00EBC00101EB001106
:101D700060686FF018078000B1FBF0F2B2FBF5F27B
:101D8000B1FBF0F37A4303EB8202B1FBF0F306EB15
:101D90000212B2FBF5F2B3FBF5F302F0F00202EB34
:101DA0000312B1FBF0F3B1FBF0F0B0FBF5F07843B8
:101DB00003EB800006EB0010B0FBF5F0216800F0AB
:101DC0000F0010448860BDE8F08100000038014039
:101DD0002DE9F041984617460E460446069D1DE043
:101DE000681C1BD02DB1FEF779FEA0EB0800A842BD
:101DF00014D92068C16821F4D071C160206841699C
:101E000021F001014161202084F8390084F83A0072
:101E1000002084F838000320BDE8F08120680068C5
:101E200036EA000004D00020B842D9D00020F3E701
:101E30000120F9E741F4807141F22102400049009C
:101E4000CB0500D5401CC30300D55040CB03F5D5CE
:101E500080B27047FEE700002DE9F14F0027DFF860
:101E60006CA188B03E46B9463C46D346A6E000BFCA
:101E70004FF0000845469DE04FF47A7204A954489B
:101E8000FFF704FD60B1022868D0B9F1000F00D05F
:101E9000761C052E79D91820FFF774FE182087E0EC
:101EA0000498002660B1022805D049498B78434543
:101EB0000BD015207CE00620FFF764FE022479E0B9
:101EC0000620FFF75FFE012574E0B8F1000F14D083
:101ED00082085846091DFEF7ABF9E8B31820FFF752
:101EE00051FE1820FFF74EFE5FF0040408F10100D8
:101EF00000F0FF084FF001095CE0087968B30020AA
:101F0000344B091D02E01A54401C491C0A780AB1DE
:101F10004028F8D34FF0000C03F800C060466B4631
:101F200001E01A54401C11F8012F202A01D010287A
:101F3000F7D303F800C006A91846FFF743FE089838
:101F400046F201010068884214D918200C058DF86A
:101F500014002346012202E01EE017E022E005A95A
:101F60001D48FFF7B3F92346012205A91A48FFF7D8
:101F7000ADF905245046FEF721F90898069901604D
:101F80000620FFF7FFFD432009E010E00620FFF7E1
:101F9000F9FD01252F460DE0049906208B44FFF73B
:101FA000F1FDA3E71820FFF7EDFD182084E743209B
:101FB000FFF7E8FD55EA04003FF45EAF57EA04007E
:101FC0003FF456AF09B02046BDE8F08F004000084E
:101FD000A400002064000020240000202DE9F74F19
:101FE00086B04FF0000A0120AC4E01900122089803
:101FF000727086F802A0FF23D04655465746F3700C
:10200000544604E006EB040C641C8CF804300B5DB1
:102010000BB1402CF6D3321900211171014602A8F0
:10202000FFF7B2F902A8641D02E03155641C7F1C61
:10203000C15D0029F9D14FF48019DFF860B202E0E8
:1020400000203055641C842CFAD31FE05C464E46B9
:102050004B468322611C9248FFF738F98021201DEE
:10206000FEF796F80446000AFFF78CFDE0B2FFF792
:1020700089FD3346012269468948FFF7CBF860B1F4
:102080000AF1010ABAF1050F00D3012558EA05004B
:10209000DCD006980290089C7CE09DF800000628A1
:1020A00015D01828EED13346012269467C48FFF747
:1020B000B1F80028E6D19DF800001828E2D10220EE
:1020C000FEF7A4FA7648006840680225DAE74FF088
:1020D0000108D7E7DDE90103704AC6B24FF4806713
:1020E0002046BC4201D3394600E08021884200D31B
:1020F0000846B1F5806F07D0012757709670F643F8
:10210000D6700426071D06E00227F6E713F801CB78
:1021100002F806C0761CBE42F8D3884207D81A23BC
:10212000001D091D01E01354401C8842FBD34FF0F1
:10213000000A8DF800A0574629E000BF4FF48066E2
:10214000B44200D28026F21C4B46D8460BF1010166
:102150005348FFF7BBF8314608F10400FEF718F8C2
:102160008046000AFFF70EFD08F0FF00FFF70AFDAA
:102170004B46012269464A48FFF74CF818B99DF8CA
:102180000000062811D07F1C052F00D301255AEA34
:102190000500D3D00CB1002D9CD0002426468DF82C
:1021A00000402746DFF8F8801FE002984FF0010A50
:1021B0003044B442029008D90198A41B182802D0D8
:1021C000401C0190E0E70525DEE70024DCE7042061
:1021D000FFF7D8FC4B46012269463148FFF71AF851
:1021E00040B17F1C052F00D3012554EA0500EED035
:1021F000E5B14EE09DF80000062815D01828F1D171
:102200004B46012269462648FFF704F80028E9D129
:102210009DF800001828E5D10220FEF7F7F9D8F85C
:10222000000040680225DDE70124DBE701208BF890
:1022300001008BF80260FF208BF803005C4604204D
:102240002654401CC0B28428FAD34E464B46832203
:10225000611C1348FFF73AF88021201DFDF798FF15
:102260000446000AFFF78EFCE0B2FFF78BFC334612
:10227000012269460A48FEF7CDFF50B99DF80000DB
:10228000182806D10220FEF7C1F9D8F800004068EE
:10229000022509B02846BDE8F08F0000A400002008
:1022A000240000200907090E002804DB00F1E020CB
:1022B00080F80014704700F00F0000F1E02080F873
:1022C000141D704702E008C8121F08C1002AFAD185
:1022D00070477047002001E001C1121F002AFBD1A6
:1022E0007047FEF709FCFFF7CBFCFFF77FF8FFF71D
:1022F0006BF8FFF791F8FDF78FFFFFF7A9F8FEE7FE
:1023000000000000000000000102030406070809A5
:1023100000000000010203040A0A0D2050726F67DA
:1023200072616D6D696E6720436F6D706C65746569
:1023300064205375636365737366756C6C79210AE9
:102340000D2D2D2D2D2D2D2D2D2D2D2D2D2D2D2DDD
:102350002D2D2D2D2D2D2D2D2D2D2D2D2D2D2D2DAD
:102360002D0D0A204E616D653A2000000D0A3D20BA
:10237000202020202020202020202020202020205D
:10238000202020202020202020202020202020204D
:10239000202020202020202020202020202020203D
:1023A000202020202020202020202020202020202D
:1023B0002020203D000000000D0A3D20202020208C
:1023C000202020202020202020202020202020200D
:1023D0002020202020202020202020202020427982
:1023E00020546F736F2020202020202020202020C8
:1023F0002020202020202020202020202020203DC0
:10240000000000000D0A3D20202020202020202058
:10241000202020202028432920434F50595249474B
:102420004854203230323020536F73686172652E09
:10243000636E20202020202020202020202020200B
:1024400020202020202020202020203D00000000EF
:102450000D0A3D202020202020202020202020495F
:102460006E2D4170706C69636174696F6E2050727B
:102470006F6772616D6D696E67204170706C696322
:102480006174696F6E20202856657273696F6E20C3
:10249000312E302E3029203D000000000D0A3D3D38
:1024A0003D3D3D3D3D3D3D3D3D3D3D3D3D3D3D3D5C
:1024B0003D3D3D3D3D3D3D3D3D3D3D3D3D3D3D3D4C
:1024C0003D3D3D3D3D3D3D3D3D3D3D3D3D3D3D3D3C
:1024D0003D3D3D3D3D3D3D3D3D3D3D3D3D3D3D3D2C
:1024E0003D3D3D3D000000000825000800000020A3
:1024F00024000000C42200082C250008240000202D
:10250000AC080000D4220008000000000000000019
:1025100000000000000000000000000001000000BA
:0C25200010000000000000000024F40087
:04000005080000ED02
:00000001FF
